:1000000045C0000060C000005EC000005CC0000091
:100010005AC0000058C0000056C0000054C0000084
:1000200052C0000050C000004EC000004CC0000094
:100030004AC0000048C0000046C0000044C00000A4
:10004000BAC0000040C000008FC000003CC00000EB
:100050003AC0000038C0000036C0000034C00000C4
:1000600032C0000030C000002EC000002CC00000D4
:100070002AC0000028C0000026C0000024C00000E4
:1000800022C0000020C000001EC0000011241FBEBE
:10009000CFEFD0E1DEBFCDBF12E0A0E0B1E0E2E8FB
:1000A000FBE000E00BBF02C007900D92A630B10745
:1000B000D9F723E0A6E0B2E001C01D92A23AB20750
:1000C000E1F7E0D15CC59CCF80936200A898A99825
:1000D000AA9A83EC99E00197F1F700C00000AA9872
:1000E00081EE94E00197F1F700C00000089580933D
:1000F0006200A89AA998AA9A83EC99E00197F1F76F
:1001000000C00000AA9881EE94E00197F1F700C0CA
:100110000000089587E893E10197F1F700C000001F
:1001200088E3D2DF8CE0D0DF86E0CEDF81E0CCDF79
:1001300080E8CACF0895CF93DF93EC0188818823AC
:1001400029F02196D4DF89918111FCCFDF91CF91E5
:10015000089590E4899F600D1124862F8068B4CFA4
:10016000089581E0B1CF08951F920F920FB60F92BC
:1001700011240BB60F922F933F934F935F936F937E
:100180007F938F939F93AF93BF93EF93FF9393D1FD
:10019000FF91EF91BF91AF919F918F917F916F915F
:1001A0005F914F913F912F910F900BBE0F900FBE1B
:1001B0000F901F9018951F920F920FB60F92112457
:1001C0008F939F93809106029091070201969093DE
:1001D0000702809306029F918F910F900FBE0F90A0
:1001E0001F901895CF92DF92EF92FF920F931F937B
:1001F000CF93DF9300D000D01F92CDB7DEB76C0154
:10020000FE01319685E0DF011D928A95E9F7A4E6AB
:10021000B0E08FEF8C93E5E6F0E010822FEF39EF3E
:1002200090E0215030409040E1F700C000001C9267
:100230008083E3E6F0E0808180FDFDCFE3E6F0E03F
:10024000808180FFFDCFE3E6F0E0808180FDFDCF7F
:10025000DE0111967E01E6E0EE0EF11CE3E6F0E031
:1002600001E010E01EC0908190FFFDCF8AEB8A95DF
:10027000F1F700C0808180FF0AC08C91A801022E96
:1002800002C0440F551F0A94E2F7482B4C9390810B
:1002900090FDFDCF2150310930F71196EA16FB068B
:1002A00019F027E030E0DFCF8981DB018C938A8170
:1002B00011968C938B81F60180838C8181830F90C2
:1002C0000F900F900F900F90DF91CF911F910F9192
:1002D000FF90EF90DF90CF900895CF93DF93CDB74D
:1002E000DEB768970FB6F894DEBF0FBECDBF85EAC4
:1002F00089838A838AE58B838C8304D180E091E0B3
:1003000090939F0380939E0378942FEF87EA91E662
:10031000215080409040E1F700C000008EE091E065
:1003200023D1E12CF12C0F2EF9E58F2EF1E09F2E39
:10033000F02D0F2EF7E6AF2EF1E0BF2EF02D0F2E91
:10034000F5E7CF2EF1E0DF2EF02D8E010B5F1F4F72
:100350000F2EF4E86F2EF1E07F2EF02D8091080231
:1003600090910902019759F59FD048E050E062E36F
:1003700071E08AE092E0D7D0892B89F4D99A8AE398
:1003800091E0F2D0EEDE80910602909107028D3767
:1003900091050CF06FC0EE24E394F12C61C049E0AC
:1003A00050E065E471E08AE092E0BDD0892B39F439
:1003B000D9988EE491E0D8D0D4DEE12CF12C809154
:1003C0000602909107028D3791050CF449C01092F6
:1003D000070210920602E114F10409F441C0BE01C3
:1003E0006D5F7F4FCE010196FDDE8A811F928F9354
:1003F00089811F928F939F928F92A3D08C811F929D
:100400008F938B811F928F93BF92AF929AD08A81E4
:100410001F928F9389811F928F93DF92CF921F93A8
:100420000F93D2D060E070E080E090E092DEC801EF
:1004300082DE8C811F928F938B811F928F937F928C
:100440006F921F930F93C0D060E070E081E090E066
:1004500080DEC80170DE0FB6F894DEBF0FBECDBFE0
:100460009FEF27EA81E6915020408040E1F700C0ED
:10047000000074CF1092070210920602EE24E3945B
:10048000F12CADCF8FEF8ABB84BB8093610042DE3D
:1004900083E991E050DE01D020DF83B7876083BF1E
:1004A00087B7816087BF08951092090210920802F1
:1004B0008AE092E008958CB18D3011F08A3091F489
:1004C000E0919A03F0919B03E65FFD4F108281E07B
:1004D00090E0909309028093080210929B0310927F
:1004E0009A03089520919A0330919B03A9014F5FCD
:1004F0005F4F50939B0340939A03F901E65FFD4FD2
:1005000080830895109290008FEC89B9599AE5E99B
:10051000F0E080818660808388E98AB908955D9BD8
:10052000FECF8CB90895FB01DC014150504030F002
:100530008D910190801919F40020B9F7881B990B4F
:100540000895CF93DF93CDB7DEB7AE014B5F5F4F1A
:10055000FA0161917191AF0180919E0390919F0387
:1005600061D0DF91CF9108950F931F93CF93DF93C5
:10057000E0919E03F0919F03238121FF1BC08C011A
:10058000D0E0C0E0F80181918F0160919E037091ED
:100590009F03DB011896ED91FC911997882331F0A8
:1005A0000995892B79F3DFEFCFEFECCF8AE009953E
:1005B000892B19F08FEF9FEF02C08D2F9C2FDF91B9
:1005C000CF911F910F9108950F931F93CF93DF93B6
:1005D000CDB7DEB72E970FB6F894DEBF0FBECDBFF6
:1005E0000D891E8986E08C831A8309838FEF9FE72C
:1005F0009E838D83AE01475E5F4F6F89788DCE01FC
:10060000019610D0EF81F885E00FF11F10822E9631
:100610000FB6F894DEBF0FBECDBFDF91CF911F9113
:100620000F9108952F923F924F925F926F927F9217
:100630008F929F92AF92BF92CF92DF92EF92FF92F2
:100640000F931F93CF93DF93CDB7DEB72B970FB6E2
:10065000F894DEBF0FBECDBF6C017B018A01FC01A7
:1006600017821682838181FFBFC1CE0101963C01B2
:10067000F6019381F70193FD859193FF81917F01AD
:10068000882309F4ADC1853239F493FD859193FF38
:1006900081917F01853221F4B60190E0D6D1E8CF77
:1006A000912C212C312CFFE1F315D8F08B3279F00D
:1006B00038F4803279F08332A1F4232D20611DC0FB
:1006C0008D3261F0803369F4232D216016C0832DB3
:1006D0008260382EE32DE4603E2E2AC0F32DF860B0
:1006E0001DC037FC2DC020ED280F2A3040F08E327F
:1006F000B9F436FC75C1232D2064322E19C036FEA4
:1007000006C08AE0989E200D1124922E11C0EAE0C6
:100710002E9E200D1124222EF32DF0623F2E08C0B4
:100720008C3621F4832D8068382E02C0883641F43F
:10073000F70193FD859193FF81917F018111B3CFE3
:10074000982F9F7D9554933028F40C5F1F4F9FE3A3
:1007500099830DC0833631F0833771F0833509F00A
:1007600055C020C0F801808189830E5F1F4F882407
:100770008394912C530112C02801F2E04F0E511CBA
:10078000F801A080B18036FE03C0692D70E002C080
:100790006FEF7FEFC5014ED14C018201F32DFF7742
:1007A0003F2E15C0280122E0420E511CF801A08006
:1007B000B18036FE03C0692D70E002C06FEF7FEF9D
:1007C000C5012DD14C01F32DF0683F2E820133FC81
:1007D00019C0822D90E088169906A0F4B60180E237
:1007E00090E033D12A94F5CFF50137FC859137FE9F
:1007F00081915F01B60190E028D121102A9421E077
:10080000821A91088114910479F7E1C0843611F0BD
:10081000893639F5F80137FE07C060817181828120
:1008200093810C5F1F4F08C060817181072E000CFF
:10083000880B990B0E5F1F4FF32DFF763F2E97FF0E
:1008400009C090958095709561957F4F8F4F9F4F10
:10085000F0683F2E2AE030E0A30133D1882E8618BD
:1008600044C0853731F4232D2F7EB22E2AE030E0AC
:1008700025C0932D997FB92E8F36C1F018F4883595
:1008800079F0AEC0803719F0883721F0A9C0E92F80
:10089000E061BE2EB4FE0DC0FB2DF460BF2E09C07A
:1008A00034FE0AC0292F2660B22E06C028E030E0B0
:1008B00005C020E130E002C020E132E0F801B7FEDF
:1008C00007C060817181828193810C5F1F4F06C0D8
:1008D0006081718180E090E00E5F1F4FA301F1D035
:1008E000882E8618FB2DFF773F2E36FE0DC0232D58
:1008F0002E7FA22E891458F434FE0BC032FC09C09E
:10090000832D8E7EA82E05C0B82CA32C03C0B82C36
:1009100001C0B92CA4FE0FC0FE01E80DF11D8081BD
:10092000803321F49A2D997EA92E09C0A2FE06C01B
:10093000B394B39404C08A2D867809F0B394A3FCD1
:1009400010C0A0FE06C0B21480F4280C922C9B1894
:100950000DC0B21458F4B60180E290E076D0B394A2
:10096000F8CFB21418F42B1802C0982C212CA4FE36
:100970000FC0B60180E390E068D0A2FE16C0A1FCD3
:1009800003C088E790E002C088E590E0B6010CC0A3
:100990008A2D867851F0A1FE02C08BE201C080E270
:1009A000A7FC8DE2B60190E050D0891430F4B60176
:1009B00080E390E04AD09A94F8CF8A94F301E80D4E
:1009C000F11D8081B60190E040D08110F6CF222049
:1009D00009F44ECEB60180E290E037D02A94F7CFEA
:1009E000F6018681978102C08FEF9FEF2B960FB69D
:1009F000F894DEBF0FBECDBFDF91CF911F910F9155
:100A0000FF90EF90DF90CF90BF90AF909F908F902E
:100A10007F906F905F904F903F902F900895FC01D2
:100A20000590615070400110D8F7809590958E0F19
:100A30009F1F0895FC016150704001900110D8F78C
:100A4000809590958E0F9F1F08950F931F93CF93BE
:100A5000DF93FB01238121FD03C08FEF9FEF2CC0AB
:100A600022FF16C0468157812481358142175307E2
:100A700044F4A081B1819D012F5F3F4F31832083DA
:100A80008C93268137812F5F3F4F3783268314C095
:100A90008B01EC01FB010084F185E02D0995892B88
:100AA000E1F6D80116968D919C91179701961796AD
:100AB0009C938E931697CE01DF91CF911F910F914A
:100AC0000895FA01AA27283051F1203181F1E894E4
:100AD0006F936E7F6E5F7F4F8F4F9F4FAF4FB1E031
:100AE0003ED0B4E03CD0670F781F891F9A1FA11D2C
:100AF000680F791F8A1F911DA11D6A0F711D811D2D
:100B0000911DA11D20D009F468943F912AE0269FF1
:100B100011243019305D3193DEF6CF010895462F50
:100B20004770405D4193B3E00FD0C9F7F6CF462F31
:100B30004F70405D4A3318F0495D31FD405241939A
:100B400002D0A9F7EACFB4E0A69597958795779557
:100B50006795BA95C9F700976105710508959B01DE
:100B6000AC010A2E06945795479537952795BA9567
:100B7000C9F7620F731F841F951FA01D0895F89475
:020B8000FFCFA5
:100B820000000002000000008F02000000007561FA
:100B9200727430205258203C2D2D3E205458207320
:100BA2007472696E6720746573742021212121217A
:100BB200210064687431316F6E0064687431316F82
:100BC2006E2E2E2E0064687431316F666600646882
:100BD2007431316F66662E2E005B54454D505D2098
:100BE20025642E25640A005B48554D495D20256425
:100BF2002E25640A005B54454D505D202532642E3B
:100C0200253264005B48554D495D202532642E250E
:100C120032640048454C4C4F20574F524C442038C8
:100C2200006C6564316F6E006C6564316F6E2E2EE0
:100C3200004C454431204F4E2E2E2E2E006C656402
:100C4200316F6666006C6564316F66662E2E004CED
:100C5200454431204F46462E2E2E00756172743067
:100C6200205258202D2D3E20545820737472696EE4
:100C72006720746573742021210048454C4C4F2035
:060C8200574F524C4400E4
:00000001FF
